{
  "contractName": "RecordLabelRole",
  "abi": [
    {
      "inputs": [],
      "payable": false,
      "stateMutability": "nonpayable",
      "type": "constructor"
    },
    {
      "anonymous": false,
      "inputs": [
        {
          "indexed": true,
          "name": "account",
          "type": "address"
        }
      ],
      "name": "RecordLabelAdded",
      "type": "event"
    },
    {
      "anonymous": false,
      "inputs": [
        {
          "indexed": true,
          "name": "account",
          "type": "address"
        }
      ],
      "name": "RecordLabelRemoved",
      "type": "event"
    },
    {
      "constant": true,
      "inputs": [
        {
          "name": "account",
          "type": "address"
        }
      ],
      "name": "isRecordLabel",
      "outputs": [
        {
          "name": "",
          "type": "bool"
        }
      ],
      "payable": false,
      "stateMutability": "view",
      "type": "function"
    },
    {
      "constant": false,
      "inputs": [
        {
          "name": "account",
          "type": "address"
        }
      ],
      "name": "addRecordLabel",
      "outputs": [],
      "payable": false,
      "stateMutability": "nonpayable",
      "type": "function"
    },
    {
      "constant": false,
      "inputs": [],
      "name": "renounceRecordLabel",
      "outputs": [],
      "payable": false,
      "stateMutability": "nonpayable",
      "type": "function"
    }
  ],
  "bytecode": "0x608060405234801561001057600080fd5b506100293361002e640100000000026401000000009004565b6101e8565b61004f816000610095640100000000026102a1179091906401000000009004565b8073ffffffffffffffffffffffffffffffffffffffff167f4ecfa6033e9d0c710259da17faebbf4d5dcc3795adef7258f16a21a6fdfa673860405160405180910390a250565b600073ffffffffffffffffffffffffffffffffffffffff168173ffffffffffffffffffffffffffffffffffffffff16141515156100d157600080fd5b6100ea8282610154640100000000026401000000009004565b1515156100f657600080fd5b60018260000160008373ffffffffffffffffffffffffffffffffffffffff1673ffffffffffffffffffffffffffffffffffffffff16815260200190815260200160002060006101000a81548160ff0219169083151502179055505050565b60008073ffffffffffffffffffffffffffffffffffffffff168273ffffffffffffffffffffffffffffffffffffffff161415151561019157600080fd5b8260000160008373ffffffffffffffffffffffffffffffffffffffff1673ffffffffffffffffffffffffffffffffffffffff16815260200190815260200160002060009054906101000a900460ff16905092915050565b61042c806101f76000396000f300608060405260043610610057576000357c0100000000000000000000000000000000000000000000000000000000900463ffffffff1680636a44c0601461005c578063c75f5fd61461009f578063e0e03563146100fa575b600080fd5b34801561006857600080fd5b5061009d600480360381019080803573ffffffffffffffffffffffffffffffffffffffff169060200190929190505050610111565b005b3480156100ab57600080fd5b506100e0600480360381019080803573ffffffffffffffffffffffffffffffffffffffff169060200190929190505050610131565b604051808215151515815260200191505060405180910390f35b34801561010657600080fd5b5061010f61014e565b005b61011a33610131565b151561012557600080fd5b61012e81610159565b50565b60006101478260006101b390919063ffffffff16565b9050919050565b61015733610247565b565b61016d8160006102a190919063ffffffff16565b8073ffffffffffffffffffffffffffffffffffffffff167f4ecfa6033e9d0c710259da17faebbf4d5dcc3795adef7258f16a21a6fdfa673860405160405180910390a250565b60008073ffffffffffffffffffffffffffffffffffffffff168273ffffffffffffffffffffffffffffffffffffffff16141515156101f057600080fd5b8260000160008373ffffffffffffffffffffffffffffffffffffffff1673ffffffffffffffffffffffffffffffffffffffff16815260200190815260200160002060009054906101000a900460ff16905092915050565b61025b81600061035190919063ffffffff16565b8073ffffffffffffffffffffffffffffffffffffffff167f7b5772243b6612a540480cdb8fe68ea0f96eb02d8ff6beb43fca694986dcadaa60405160405180910390a250565b600073ffffffffffffffffffffffffffffffffffffffff168173ffffffffffffffffffffffffffffffffffffffff16141515156102dd57600080fd5b6102e782826101b3565b1515156102f357600080fd5b60018260000160008373ffffffffffffffffffffffffffffffffffffffff1673ffffffffffffffffffffffffffffffffffffffff16815260200190815260200160002060006101000a81548160ff0219169083151502179055505050565b600073ffffffffffffffffffffffffffffffffffffffff168173ffffffffffffffffffffffffffffffffffffffff161415151561038d57600080fd5b61039782826101b3565b15156103a257600080fd5b60008260000160008373ffffffffffffffffffffffffffffffffffffffff1673ffffffffffffffffffffffffffffffffffffffff16815260200190815260200160002060006101000a81548160ff02191690831515021790555050505600a165627a7a72305820f0dc4d120701b6d0318e8e29eaf2a9775946392f991ec3431305119c2495b36f0029",
  "source": "pragma solidity ^0.4.24;\n\n// Import the library 'Roles'\nimport \"./Roles.sol\";\n\n// Define a contract 'RecordLabelRole' to manage this role - add, remove, check\ncontract RecordLabelRole {\n  using Roles for Roles.Role;\n\n  // Define 2 events, one for Adding, and other for Removing\n  event RecordLabelAdded(address indexed account);\n  event RecordLabelRemoved(address indexed account);\n\n  // Define a struct 'recordLabels' by inheriting from 'Roles' library, struct Role\n  Roles.Role private recordLabels;\n\n  // In the constructor make the address that deploys this contract the 1st RecordLabel\n  constructor() public {\n    _addRecordLabel(msg.sender);\n  }\n\n  // Define a modifier that checks to see if msg.sender has the appropriate role\n  modifier onlyRecordLabel() {\n    require(isRecordLabel(msg.sender));\n    _;\n  }\n\n  // Define a function 'isRecordLabel' to check this role\n  function isRecordLabel(address account) public view returns (bool) {\n    return recordLabels.has(account);\n  }\n\n  // Define a function 'addRecordLabel' that adds this role\n  function addRecordLabel(address account) public onlyRecordLabel {\n    _addRecordLabel(account);\n  }\n\n  // Define a function 'renounceRecordLabel' to renounce this role\n  function renounceRecordLabel() public {\n    _removeRecordLabel(msg.sender);\n  }\n\n  // Define an internal function '_addRecordLabel' to add this role, called by 'addRecordLabel'\n  function _addRecordLabel(address account) internal {\n    recordLabels.add(account);\n    emit RecordLabelAdded(account);\n  }\n\n  // Define an internal function '_removeRecordLabel' to remove this role, called by 'removeRecordLabel'\n  function _removeRecordLabel(address account) internal {\n    recordLabels.remove(account);\n    emit RecordLabelRemoved(account);\n  }\n}",
  "sourcePath": "/Users/biodunerinle/Desktop/nd1309-Project-6b-Example-Template/project-6/contracts/musicaccesscontrol/RecordLabelRole.sol",
  "compiler": {
    "name": "solc",
    "version": "0.4.24+commit.e67f0147.Emscripten.clang"
  },
  "schemaVersion": "3.4.16",
  "updatedAt": "2023-11-17T03:02:02.423Z",
  "networkType": "ethereum",
  "devdoc": {
    "methods": {}
  },
  "userdoc": {
    "methods": {}
  }
}