{
  "contractName": "SupplyChain",
  "abi": [
    {
      "constant": false,
      "inputs": [
        {
          "name": "account",
          "type": "address"
        }
      ],
      "name": "addConsumer",
      "outputs": [],
      "payable": false,
      "stateMutability": "nonpayable",
      "type": "function"
    },
    {
      "constant": false,
      "inputs": [
        {
          "name": "account",
          "type": "address"
        }
      ],
      "name": "addArtist",
      "outputs": [],
      "payable": false,
      "stateMutability": "nonpayable",
      "type": "function"
    },
    {
      "constant": false,
      "inputs": [],
      "name": "renounceConsumer",
      "outputs": [],
      "payable": false,
      "stateMutability": "nonpayable",
      "type": "function"
    },
    {
      "constant": false,
      "inputs": [],
      "name": "renounceDistributor",
      "outputs": [],
      "payable": false,
      "stateMutability": "nonpayable",
      "type": "function"
    },
    {
      "constant": false,
      "inputs": [
        {
          "name": "account",
          "type": "address"
        }
      ],
      "name": "addRecordLabel",
      "outputs": [],
      "payable": false,
      "stateMutability": "nonpayable",
      "type": "function"
    },
    {
      "constant": true,
      "inputs": [
        {
          "name": "account",
          "type": "address"
        }
      ],
      "name": "isArtist",
      "outputs": [
        {
          "name": "",
          "type": "bool"
        }
      ],
      "payable": false,
      "stateMutability": "view",
      "type": "function"
    },
    {
      "constant": false,
      "inputs": [],
      "name": "renounceOwnership",
      "outputs": [],
      "payable": false,
      "stateMutability": "nonpayable",
      "type": "function"
    },
    {
      "constant": false,
      "inputs": [
        {
          "name": "account",
          "type": "address"
        }
      ],
      "name": "addDistributor",
      "outputs": [],
      "payable": false,
      "stateMutability": "nonpayable",
      "type": "function"
    },
    {
      "constant": true,
      "inputs": [
        {
          "name": "account",
          "type": "address"
        }
      ],
      "name": "isConsumer",
      "outputs": [
        {
          "name": "",
          "type": "bool"
        }
      ],
      "payable": false,
      "stateMutability": "view",
      "type": "function"
    },
    {
      "constant": true,
      "inputs": [],
      "name": "owner",
      "outputs": [
        {
          "name": "",
          "type": "address"
        }
      ],
      "payable": false,
      "stateMutability": "view",
      "type": "function"
    },
    {
      "constant": true,
      "inputs": [
        {
          "name": "account",
          "type": "address"
        }
      ],
      "name": "isDistributor",
      "outputs": [
        {
          "name": "",
          "type": "bool"
        }
      ],
      "payable": false,
      "stateMutability": "view",
      "type": "function"
    },
    {
      "constant": true,
      "inputs": [],
      "name": "isOwner",
      "outputs": [
        {
          "name": "",
          "type": "bool"
        }
      ],
      "payable": false,
      "stateMutability": "view",
      "type": "function"
    },
    {
      "constant": true,
      "inputs": [
        {
          "name": "",
          "type": "uint256"
        }
      ],
      "name": "music",
      "outputs": [
        {
          "name": "sku",
          "type": "uint256"
        },
        {
          "name": "upc",
          "type": "uint256"
        },
        {
          "name": "ownerID",
          "type": "address"
        },
        {
          "name": "artistID",
          "type": "address"
        },
        {
          "name": "musicPrice",
          "type": "uint256"
        },
        {
          "name": "musicState",
          "type": "uint8"
        },
        {
          "name": "distributorID",
          "type": "address"
        },
        {
          "name": "recordLabelID",
          "type": "address"
        },
        {
          "name": "consumerID",
          "type": "address"
        },
        {
          "name": "musicID",
          "type": "uint256"
        },
        {
          "name": "musicNotes",
          "type": "string"
        }
      ],
      "payable": false,
      "stateMutability": "view",
      "type": "function"
    },
    {
      "constant": false,
      "inputs": [],
      "name": "renounceArtist",
      "outputs": [],
      "payable": false,
      "stateMutability": "nonpayable",
      "type": "function"
    },
    {
      "constant": true,
      "inputs": [
        {
          "name": "account",
          "type": "address"
        }
      ],
      "name": "isRecordLabel",
      "outputs": [
        {
          "name": "",
          "type": "bool"
        }
      ],
      "payable": false,
      "stateMutability": "view",
      "type": "function"
    },
    {
      "constant": true,
      "inputs": [
        {
          "name": "",
          "type": "uint256"
        },
        {
          "name": "",
          "type": "uint256"
        }
      ],
      "name": "musicHistory",
      "outputs": [
        {
          "name": "",
          "type": "string"
        }
      ],
      "payable": false,
      "stateMutability": "view",
      "type": "function"
    },
    {
      "constant": false,
      "inputs": [],
      "name": "renounceRecordLabel",
      "outputs": [],
      "payable": false,
      "stateMutability": "nonpayable",
      "type": "function"
    },
    {
      "constant": false,
      "inputs": [
        {
          "name": "newOwner",
          "type": "address"
        }
      ],
      "name": "transferOwnership",
      "outputs": [],
      "payable": false,
      "stateMutability": "nonpayable",
      "type": "function"
    },
    {
      "inputs": [],
      "payable": true,
      "stateMutability": "payable",
      "type": "constructor"
    },
    {
      "anonymous": false,
      "inputs": [
        {
          "indexed": false,
          "name": "upc",
          "type": "uint256"
        }
      ],
      "name": "Made",
      "type": "event"
    },
    {
      "anonymous": false,
      "inputs": [
        {
          "indexed": false,
          "name": "upc",
          "type": "uint256"
        }
      ],
      "name": "Registered",
      "type": "event"
    },
    {
      "anonymous": false,
      "inputs": [
        {
          "indexed": false,
          "name": "upc",
          "type": "uint256"
        }
      ],
      "name": "Verified",
      "type": "event"
    },
    {
      "anonymous": false,
      "inputs": [
        {
          "indexed": false,
          "name": "upc",
          "type": "uint256"
        }
      ],
      "name": "Promoted",
      "type": "event"
    },
    {
      "anonymous": false,
      "inputs": [
        {
          "indexed": false,
          "name": "upc",
          "type": "uint256"
        }
      ],
      "name": "Distributed",
      "type": "event"
    },
    {
      "anonymous": false,
      "inputs": [
        {
          "indexed": false,
          "name": "upc",
          "type": "uint256"
        }
      ],
      "name": "ForSale",
      "type": "event"
    },
    {
      "anonymous": false,
      "inputs": [
        {
          "indexed": false,
          "name": "upc",
          "type": "uint256"
        }
      ],
      "name": "Bought",
      "type": "event"
    },
    {
      "anonymous": false,
      "inputs": [
        {
          "indexed": false,
          "name": "upc",
          "type": "uint256"
        }
      ],
      "name": "Listened",
      "type": "event"
    },
    {
      "anonymous": false,
      "inputs": [
        {
          "indexed": true,
          "name": "oldOwner",
          "type": "address"
        },
        {
          "indexed": true,
          "name": "newOwner",
          "type": "address"
        }
      ],
      "name": "TransferOwnership",
      "type": "event"
    },
    {
      "anonymous": false,
      "inputs": [
        {
          "indexed": true,
          "name": "account",
          "type": "address"
        }
      ],
      "name": "ConsumerAdded",
      "type": "event"
    },
    {
      "anonymous": false,
      "inputs": [
        {
          "indexed": true,
          "name": "account",
          "type": "address"
        }
      ],
      "name": "ConsumerRemoved",
      "type": "event"
    },
    {
      "anonymous": false,
      "inputs": [
        {
          "indexed": true,
          "name": "account",
          "type": "address"
        }
      ],
      "name": "DistributorAdded",
      "type": "event"
    },
    {
      "anonymous": false,
      "inputs": [
        {
          "indexed": true,
          "name": "account",
          "type": "address"
        }
      ],
      "name": "DistributorRemoved",
      "type": "event"
    },
    {
      "anonymous": false,
      "inputs": [
        {
          "indexed": true,
          "name": "account",
          "type": "address"
        }
      ],
      "name": "RecordLabelAdded",
      "type": "event"
    },
    {
      "anonymous": false,
      "inputs": [
        {
          "indexed": true,
          "name": "account",
          "type": "address"
        }
      ],
      "name": "RecordLabelRemoved",
      "type": "event"
    },
    {
      "anonymous": false,
      "inputs": [
        {
          "indexed": true,
          "name": "account",
          "type": "address"
        }
      ],
      "name": "ArtistAdded",
      "type": "event"
    },
    {
      "anonymous": false,
      "inputs": [
        {
          "indexed": true,
          "name": "account",
          "type": "address"
        }
      ],
      "name": "ArtistRemoved",
      "type": "event"
    },
    {
      "constant": false,
      "inputs": [],
      "name": "kill",
      "outputs": [],
      "payable": false,
      "stateMutability": "nonpayable",
      "type": "function"
    },
    {
      "constant": false,
      "inputs": [
        {
          "name": "psku",
          "type": "uint256"
        },
        {
          "name": "pupc",
          "type": "uint256"
        },
        {
          "name": "pownerID",
          "type": "address"
        },
        {
          "name": "_musicID",
          "type": "uint256"
        },
        {
          "name": "_musicNotes",
          "type": "string"
        }
      ],
      "name": "makeMusic",
      "outputs": [],
      "payable": false,
      "stateMutability": "nonpayable",
      "type": "function"
    },
    {
      "constant": false,
      "inputs": [
        {
          "name": "_upc",
          "type": "uint256"
        }
      ],
      "name": "registerMusic",
      "outputs": [],
      "payable": false,
      "stateMutability": "nonpayable",
      "type": "function"
    },
    {
      "constant": false,
      "inputs": [
        {
          "name": "_upc",
          "type": "uint256"
        }
      ],
      "name": "verifyMusic",
      "outputs": [],
      "payable": false,
      "stateMutability": "nonpayable",
      "type": "function"
    },
    {
      "constant": false,
      "inputs": [
        {
          "name": "_upc",
          "type": "uint256"
        }
      ],
      "name": "promoteMusic",
      "outputs": [],
      "payable": false,
      "stateMutability": "nonpayable",
      "type": "function"
    },
    {
      "constant": false,
      "inputs": [
        {
          "name": "_upc",
          "type": "uint256"
        }
      ],
      "name": "distributeMusic",
      "outputs": [],
      "payable": false,
      "stateMutability": "nonpayable",
      "type": "function"
    },
    {
      "constant": false,
      "inputs": [
        {
          "name": "_upc",
          "type": "uint256"
        },
        {
          "name": "_price",
          "type": "uint256"
        }
      ],
      "name": "sellMusic",
      "outputs": [],
      "payable": false,
      "stateMutability": "nonpayable",
      "type": "function"
    },
    {
      "constant": false,
      "inputs": [
        {
          "name": "_upc",
          "type": "uint256"
        }
      ],
      "name": "buyMusic",
      "outputs": [],
      "payable": true,
      "stateMutability": "payable",
      "type": "function"
    },
    {
      "constant": false,
      "inputs": [
        {
          "name": "_upc",
          "type": "uint256"
        }
      ],
      "name": "listenToMusic",
      "outputs": [],
      "payable": false,
      "stateMutability": "nonpayable",
      "type": "function"
    },
    {
      "constant": true,
      "inputs": [
        {
          "name": "_upc",
          "type": "uint256"
        }
      ],
      "name": "fetchmusicBufferOnePartOne",
      "outputs": [
        {
          "name": "musicSKU",
          "type": "uint256"
        },
        {
          "name": "musicUPC",
          "type": "uint256"
        },
        {
          "name": "ownerID",
          "type": "address"
        },
        {
          "name": "artistID",
          "type": "address"
        }
      ],
      "payable": false,
      "stateMutability": "view",
      "type": "function"
    },
    {
      "constant": true,
      "inputs": [
        {
          "name": "_upc",
          "type": "uint256"
        }
      ],
      "name": "fetchmusicBufferOnePartTwo",
      "outputs": [
        {
          "name": "musicSKU",
          "type": "uint256"
        },
        {
          "name": "musicUPC",
          "type": "uint256"
        },
        {
          "name": "musicPrice",
          "type": "uint256"
        },
        {
          "name": "musicState",
          "type": "uint256"
        },
        {
          "name": "musicID",
          "type": "uint256"
        },
        {
          "name": "musicNotes",
          "type": "string"
        }
      ],
      "payable": false,
      "stateMutability": "view",
      "type": "function"
    },
    {
      "constant": true,
      "inputs": [
        {
          "name": "_upc",
          "type": "uint256"
        }
      ],
      "name": "fetchmusicBufferOnePartThree",
      "outputs": [
        {
          "name": "musicSKU",
          "type": "uint256"
        },
        {
          "name": "musicUPC",
          "type": "uint256"
        },
        {
          "name": "artistID",
          "type": "address"
        },
        {
          "name": "distributorID",
          "type": "address"
        },
        {
          "name": "recordLabelID",
          "type": "address"
        },
        {
          "name": "consumerID",
          "type": "address"
        }
      ],
      "payable": false,
      "stateMutability": "view",
      "type": "function"
    }
  ],
  "bytecode": "0x60806040526200001e3362000130640100000000026401000000009004565b62000038336200019a640100000000026401000000009004565b620000523362000204640100000000026401000000009004565b6200006c336200026e640100000000026401000000009004565b33600460006101000a81548173ffffffffffffffffffffffffffffffffffffffff021916908373ffffffffffffffffffffffffffffffffffffffff160217905550600460009054906101000a900473ffffffffffffffffffffffffffffffffffffffff1673ffffffffffffffffffffffffffffffffffffffff16600073ffffffffffffffffffffffffffffffffffffffff167f5c486528ec3e3f0ea91181cff8116f02bfa350e03b8b6f12e00765adbb5af85c60405160405180910390a362000430565b62000154816000620002d86401000000000262002a64179091906401000000009004565b8073ffffffffffffffffffffffffffffffffffffffff167fcbfc96fa35f269722f7abab67c3e11fbfd63618e2e593bdf481f2818e8e8304260405160405180910390a250565b620001be816001620002d86401000000000262002a64179091906401000000009004565b8073ffffffffffffffffffffffffffffffffffffffff167f4ecfa6033e9d0c710259da17faebbf4d5dcc3795adef7258f16a21a6fdfa673860405160405180910390a250565b62000228816002620002d86401000000000262002a64179091906401000000009004565b8073ffffffffffffffffffffffffffffffffffffffff167fddbf200aa634dc3fb81cfd68583dd1040d1c751d335e1d86b631bde3e977fea860405160405180910390a250565b62000292816003620002d86401000000000262002a64179091906401000000009004565b8073ffffffffffffffffffffffffffffffffffffffff167f28b26e7a3d20aedbc5f8f2ebf7da671c0491723a2b78f47a097b0e46dee0714260405160405180910390a250565b600073ffffffffffffffffffffffffffffffffffffffff168173ffffffffffffffffffffffffffffffffffffffff16141515156200031557600080fd5b6200033082826200039b640100000000026401000000009004565b1515156200033d57600080fd5b60018260000160008373ffffffffffffffffffffffffffffffffffffffff1673ffffffffffffffffffffffffffffffffffffffff16815260200190815260200160002060006101000a81548160ff0219169083151502179055505050565b60008073ffffffffffffffffffffffffffffffffffffffff168273ffffffffffffffffffffffffffffffffffffffff1614151515620003d957600080fd5b8260000160008373ffffffffffffffffffffffffffffffffffffffff1673ffffffffffffffffffffffffffffffffffffffff16815260200190815260200160002060009054906101000a900460ff16905092915050565b612d6880620004406000396000f30060806040526004361061017f576000357c0100000000000000000000000000000000000000000000000000000000900463ffffffff1680629112601461018457806305a13d5814610298578063112940f9146103615780632538c533146103a457806341c0e1b5146103c45780634b9857f2146103db5780634d287f2b14610412578063532d52921461045557806361e6982d14610482578063644241db146104995780636a44c060146104b05780636b2f65b0146104f3578063715018a61461054e5780637250e2241461056557806374d091f1146105a8578063834ff739146106565780638da5cb5b146106b15780638f0c86fa146107085780638f32d59b146107635780639eb4766714610792578063a8a04f4114610968578063b7e8b9c714610995578063bee02afc146109ac578063c19356d5146109d9578063c75f5fd614610a06578063d936761314610a61578063e0e0356314610b11578063ee85195714610b28578063f2fde38b14610b55578063f588d24414610b98575b600080fd5b34801561019057600080fd5b506101af60048036038101908080359060200190929190505050610c3f565b604051808781526020018681526020018573ffffffffffffffffffffffffffffffffffffffff1673ffffffffffffffffffffffffffffffffffffffff1681526020018473ffffffffffffffffffffffffffffffffffffffff1673ffffffffffffffffffffffffffffffffffffffff1681526020018373ffffffffffffffffffffffffffffffffffffffff1673ffffffffffffffffffffffffffffffffffffffff1681526020018273ffffffffffffffffffffffffffffffffffffffff1673ffffffffffffffffffffffffffffffffffffffff168152602001965050505050505060405180910390f35b3480156102a457600080fd5b506102c360048036038101908080359060200190929190505050610f4c565b6040518087815260200186815260200185815260200184815260200183815260200180602001828103825283818151815260200191508051906020019080838360005b83811015610321578082015181840152602081019050610306565b50505050905090810190601f16801561034e5780820380516001836020036101000a031916815260200191505b5097505050505050505060405180910390f35b34801561036d57600080fd5b506103a2600480360381019080803573ffffffffffffffffffffffffffffffffffffffff169060200190929190505050611269565b005b6103c260048036038101908080359060200190929190505050611289565b005b3480156103d057600080fd5b506103d9611565565b005b3480156103e757600080fd5b506104106004803603810190808035906020019092919080359060200190929190505050611598565b005b34801561041e57600080fd5b50610453600480360381019080803573ffffffffffffffffffffffffffffffffffffffff169060200190929190505050611684565b005b34801561046157600080fd5b50610480600480360381019080803590602001909291905050506116a4565b005b34801561048e57600080fd5b50610497611774565b005b3480156104a557600080fd5b506104ae61177f565b005b3480156104bc57600080fd5b506104f1600480360381019080803573ffffffffffffffffffffffffffffffffffffffff16906020019092919050505061178a565b005b3480156104ff57600080fd5b50610534600480360381019080803573ffffffffffffffffffffffffffffffffffffffff1690602001909291905050506117aa565b604051808215151515815260200191505060405180910390f35b34801561055a57600080fd5b506105636117c7565b005b34801561057157600080fd5b506105a6600480360381019080803573ffffffffffffffffffffffffffffffffffffffff16906020019092919050505061189b565b005b3480156105b457600080fd5b506105d3600480360381019080803590602001909291905050506118bb565b604051808581526020018481526020018373ffffffffffffffffffffffffffffffffffffffff1673ffffffffffffffffffffffffffffffffffffffff1681526020018273ffffffffffffffffffffffffffffffffffffffff1673ffffffffffffffffffffffffffffffffffffffff16815260200194505050505060405180910390f35b34801561066257600080fd5b50610697600480360381019080803573ffffffffffffffffffffffffffffffffffffffff169060200190929190505050611bb4565b604051808215151515815260200191505060405180910390f35b3480156106bd57600080fd5b506106c6611bd1565b604051808273ffffffffffffffffffffffffffffffffffffffff1673ffffffffffffffffffffffffffffffffffffffff16815260200191505060405180910390f35b34801561071457600080fd5b50610749600480360381019080803573ffffffffffffffffffffffffffffffffffffffff169060200190929190505050611bfb565b604051808215151515815260200191505060405180910390f35b34801561076f57600080fd5b50610778611c18565b604051808215151515815260200191505060405180910390f35b34801561079e57600080fd5b506107bd60048036038101908080359060200190929190505050611c70565b604051808c81526020018b81526020018a73ffffffffffffffffffffffffffffffffffffffff1673ffffffffffffffffffffffffffffffffffffffff1681526020018973ffffffffffffffffffffffffffffffffffffffff1673ffffffffffffffffffffffffffffffffffffffff16815260200188815260200187600781111561084357fe5b60ff1681526020018673ffffffffffffffffffffffffffffffffffffffff1673ffffffffffffffffffffffffffffffffffffffff1681526020018573ffffffffffffffffffffffffffffffffffffffff1673ffffffffffffffffffffffffffffffffffffffff1681526020018473ffffffffffffffffffffffffffffffffffffffff1673ffffffffffffffffffffffffffffffffffffffff16815260200183815260200180602001828103825283818151815260200191508051906020019080838360005b83811015610923578082015181840152602081019050610908565b50505050905090810190601f1680156109505780820380516001836020036101000a031916815260200191505b509c5050505050505050505050505060405180910390f35b34801561097457600080fd5b5061099360048036038101908080359060200190929190505050611e0f565b005b3480156109a157600080fd5b506109aa611edf565b005b3480156109b857600080fd5b506109d760048036038101908080359060200190929190505050611eea565b005b3480156109e557600080fd5b50610a0460048036038101908080359060200190929190505050611fb9565b005b348015610a1257600080fd5b50610a47600480360381019080803573ffffffffffffffffffffffffffffffffffffffff169060200190929190505050612089565b604051808215151515815260200191505060405180910390f35b348015610a6d57600080fd5b50610a9660048036038101908080359060200190929190803590602001909291905050506120a6565b6040518080602001828103825283818151815260200191508051906020019080838360005b83811015610ad6578082015181840152602081019050610abb565b50505050905090810190601f168015610b035780820380516001836020036101000a031916815260200191505b509250505060405180910390f35b348015610b1d57600080fd5b50610b2661216e565b005b348015610b3457600080fd5b50610b5360048036038101908080359060200190929190505050612179565b005b348015610b6157600080fd5b50610b96600480360381019080803573ffffffffffffffffffffffffffffffffffffffff169060200190929190505050612249565b005b348015610ba457600080fd5b50610c3d6004803603810190808035906020019092919080359060200190929190803573ffffffffffffffffffffffffffffffffffffffff16906020019092919080359060200190929190803590602001908201803590602001908080601f0160208091040260200160405190810160405280939291908181526020018383808284378201915050505050509192919290505050612268565b005b600080600080600080610c50612bc3565b60076000898152602001908152602001600020610160604051908101604052908160008201548152602001600182015481526020016002820160009054906101000a900473ffffffffffffffffffffffffffffffffffffffff1673ffffffffffffffffffffffffffffffffffffffff1673ffffffffffffffffffffffffffffffffffffffff1681526020016003820160009054906101000a900473ffffffffffffffffffffffffffffffffffffffff1673ffffffffffffffffffffffffffffffffffffffff1673ffffffffffffffffffffffffffffffffffffffff168152602001600482015481526020016005820160009054906101000a900460ff166007811115610d5857fe5b6007811115610d6357fe5b81526020016005820160019054906101000a900473ffffffffffffffffffffffffffffffffffffffff1673ffffffffffffffffffffffffffffffffffffffff1673ffffffffffffffffffffffffffffffffffffffff1681526020016006820160009054906101000a900473ffffffffffffffffffffffffffffffffffffffff1673ffffffffffffffffffffffffffffffffffffffff1673ffffffffffffffffffffffffffffffffffffffff1681526020016007820160009054906101000a900473ffffffffffffffffffffffffffffffffffffffff1673ffffffffffffffffffffffffffffffffffffffff1673ffffffffffffffffffffffffffffffffffffffff16815260200160088201548152602001600982018054600181600116156101000203166002900480601f016020809104026020016040519081016040528092919081815260200182805460018160011615610100020316600290048015610f0c5780601f10610ee157610100808354040283529160200191610f0c565b820191906000526020600020905b815481529060010190602001808311610eef57829003601f168201915b50505050508152505090508060000151816020015182606001518360c001518460e001518561010001519650965096509650965096505091939550919395565b60008060008060006060610f5e612bc3565b60076000898152602001908152602001600020610160604051908101604052908160008201548152602001600182015481526020016002820160009054906101000a900473ffffffffffffffffffffffffffffffffffffffff1673ffffffffffffffffffffffffffffffffffffffff1673ffffffffffffffffffffffffffffffffffffffff1681526020016003820160009054906101000a900473ffffffffffffffffffffffffffffffffffffffff1673ffffffffffffffffffffffffffffffffffffffff1673ffffffffffffffffffffffffffffffffffffffff168152602001600482015481526020016005820160009054906101000a900460ff16600781111561106657fe5b600781111561107157fe5b81526020016005820160019054906101000a900473ffffffffffffffffffffffffffffffffffffffff1673ffffffffffffffffffffffffffffffffffffffff1673ffffffffffffffffffffffffffffffffffffffff1681526020016006820160009054906101000a900473ffffffffffffffffffffffffffffffffffffffff1673ffffffffffffffffffffffffffffffffffffffff1673ffffffffffffffffffffffffffffffffffffffff1681526020016007820160009054906101000a900473ffffffffffffffffffffffffffffffffffffffff1673ffffffffffffffffffffffffffffffffffffffff1673ffffffffffffffffffffffffffffffffffffffff16815260200160088201548152602001600982018054600181600116156101000203166002900480601f01602080910402602001604051908101604052809291908181526020018280546001816001161561010002031660029004801561121a5780601f106111ef5761010080835404028352916020019161121a565b820191906000526020600020905b8154815290600101906020018083116111fd57829003601f168201915b50505050508152505090508060000151816020015182608001518360a00151600781111561124457fe5b8461012001518561014001518090509650965096509650965096505091939550919395565b61127233611bb4565b151561127d57600080fd5b61128681612604565b50565b6000816005600781111561129957fe5b6007600083815260200190815260200160002060050160009054906101000a900460ff1660078111156112c857fe5b1415156112d457600080fd5b60076000848152602001908152602001600020600401548034101515156112fa57600080fd5b8360008061130733611bb4565b151561131257600080fd5b6007600088815260200190815260200160002060020160009054906101000a900473ffffffffffffffffffffffffffffffffffffffff169550336007600089815260200190815260200160002060020160006101000a81548173ffffffffffffffffffffffffffffffffffffffff021916908373ffffffffffffffffffffffffffffffffffffffff160217905550336007600089815260200190815260200160002060050160016101000a81548173ffffffffffffffffffffffffffffffffffffffff021916908373ffffffffffffffffffffffffffffffffffffffff16021790555060066007600089815260200190815260200160002060050160006101000a81548160ff0219169083600781111561142857fe5b02179055508573ffffffffffffffffffffffffffffffffffffffff166108fc600760008a8152602001908152602001600020600401549081150290604051600060405180830381858888f19350505050158015611489573d6000803e3d6000fd5b507f4e08ba899977cf7d4c2964bce71c6b9a7ef76ee5166a4c1249a1e08016e33ef1876040518082815260200191505060405180910390a16007600084815260200190815260200160002060040154915081340390506007600084815260200190815260200160002060070160009054906101000a900473ffffffffffffffffffffffffffffffffffffffff1673ffffffffffffffffffffffffffffffffffffffff166108fc829081150290604051600060405180830381858888f1935050505015801561155b573d6000803e3d6000fd5b5050505050505050565b61156d611c18565b151561157857600080fd5b611580611bd1565b73ffffffffffffffffffffffffffffffffffffffff16ff5b81600460078111156115a657fe5b6007600083815260200190815260200160002060050160009054906101000a900460ff1660078111156115d557fe5b1415156115e157600080fd5b6115ea33611bfb565b15156115f557600080fd5b60056007600085815260200190815260200160002060050160006101000a81548160ff0219169083600781111561162857fe5b02179055508160076000858152602001908152602001600020600401819055507fa96ae0fc3224ebd79eebfe54bd130cc9cb94416cddd1f2386115e00b72532468836040518082815260200191505060405180910390a1505050565b61168d336117aa565b151561169857600080fd5b6116a18161265e565b50565b80600260078111156116b257fe5b6007600083815260200190815260200160002060050160009054906101000a900460ff1660078111156116e157fe5b1415156116ed57600080fd5b6116f633612089565b151561170157600080fd5b60036007600084815260200190815260200160002060050160006101000a81548160ff0219169083600781111561173457fe5b02179055507f11285f43c9a39d8cf6cb38ca5afde9fea558dfe3faae1fb3b0b9d70dbcba61d5826040518082815260200191505060405180910390a15050565b61177d336126b8565b565b61178833612712565b565b61179333612089565b151561179e57600080fd5b6117a78161276c565b50565b60006117c08260006127c690919063ffffffff16565b9050919050565b6117cf611c18565b15156117da57600080fd5b600073ffffffffffffffffffffffffffffffffffffffff16600460009054906101000a900473ffffffffffffffffffffffffffffffffffffffff1673ffffffffffffffffffffffffffffffffffffffff167f5c486528ec3e3f0ea91181cff8116f02bfa350e03b8b6f12e00765adbb5af85c60405160405180910390a36000600460006101000a81548173ffffffffffffffffffffffffffffffffffffffff021916908373ffffffffffffffffffffffffffffffffffffffff160217905550565b6118a433611bfb565b15156118af57600080fd5b6118b88161285a565b50565b6000806000806118c9612bc3565b60076000878152602001908152602001600020610160604051908101604052908160008201548152602001600182015481526020016002820160009054906101000a900473ffffffffffffffffffffffffffffffffffffffff1673ffffffffffffffffffffffffffffffffffffffff1673ffffffffffffffffffffffffffffffffffffffff1681526020016003820160009054906101000a900473ffffffffffffffffffffffffffffffffffffffff1673ffffffffffffffffffffffffffffffffffffffff1673ffffffffffffffffffffffffffffffffffffffff168152602001600482015481526020016005820160009054906101000a900460ff1660078111156119d157fe5b60078111156119dc57fe5b81526020016005820160019054906101000a900473ffffffffffffffffffffffffffffffffffffffff1673ffffffffffffffffffffffffffffffffffffffff1673ffffffffffffffffffffffffffffffffffffffff1681526020016006820160009054906101000a900473ffffffffffffffffffffffffffffffffffffffff1673ffffffffffffffffffffffffffffffffffffffff1673ffffffffffffffffffffffffffffffffffffffff1681526020016007820160009054906101000a900473ffffffffffffffffffffffffffffffffffffffff1673ffffffffffffffffffffffffffffffffffffffff1673ffffffffffffffffffffffffffffffffffffffff16815260200160088201548152602001600982018054600181600116156101000203166002900480601f016020809104026020016040519081016040528092919081815260200182805460018160011615610100020316600290048015611b855780601f10611b5a57610100808354040283529160200191611b85565b820191906000526020600020905b815481529060010190602001808311611b6857829003601f168201915b505050505081525050905080600001518160200151826040015183606001519450945094509450509193509193565b6000611bca8260036127c690919063ffffffff16565b9050919050565b6000600460009054906101000a900473ffffffffffffffffffffffffffffffffffffffff16905090565b6000611c118260026127c690919063ffffffff16565b9050919050565b6000600460009054906101000a900473ffffffffffffffffffffffffffffffffffffffff1673ffffffffffffffffffffffffffffffffffffffff163373ffffffffffffffffffffffffffffffffffffffff1614905090565b60076020528060005260406000206000915090508060000154908060010154908060020160009054906101000a900473ffffffffffffffffffffffffffffffffffffffff16908060030160009054906101000a900473ffffffffffffffffffffffffffffffffffffffff16908060040154908060050160009054906101000a900460ff16908060050160019054906101000a900473ffffffffffffffffffffffffffffffffffffffff16908060060160009054906101000a900473ffffffffffffffffffffffffffffffffffffffff16908060070160009054906101000a900473ffffffffffffffffffffffffffffffffffffffff1690806008015490806009018054600181600116156101000203166002900480601f016020809104026020016040519081016040528092919081815260200182805460018160011615610100020316600290048015611e055780601f10611dda57610100808354040283529160200191611e05565b820191906000526020600020905b815481529060010190602001808311611de857829003601f168201915b505050505090508b565b8060006007811115611e1d57fe5b6007600083815260200190815260200160002060050160009054906101000a900460ff166007811115611e4c57fe5b141515611e5857600080fd5b611e61336117aa565b1515611e6c57600080fd5b60016007600084815260200190815260200160002060050160006101000a81548160ff02191690836007811115611e9f57fe5b02179055507f1fcb8fd4a09d0facf37b6e1cd47a0cce5aa0b069a1d3d5bd9c223220fa1f5a1c826040518082815260200191505060405180910390a15050565b611ee8336128b4565b565b8060066007811115611ef857fe5b6007600083815260200190815260200160002060050160009054906101000a900460ff166007811115611f2757fe5b141515611f3357600080fd5b611f3c33611bb4565b1515611f4757600080fd5b600780600084815260200190815260200160002060050160006101000a81548160ff02191690836007811115611f7957fe5b02179055507f70cfd6e4cc6d3e03f704a69f267797475316068f09595095865c39c9fb345315826040518082815260200191505060405180910390a15050565b8060036007811115611fc757fe5b6007600083815260200190815260200160002060050160009054906101000a900460ff166007811115611ff657fe5b14151561200257600080fd5b61200b33611bfb565b151561201657600080fd5b60046007600084815260200190815260200160002060050160006101000a81548160ff0219169083600781111561204957fe5b02179055507fddc9c30275a04c48091f24199f9c405765de34d979d6847f5b9798a57232d2e5826040518082815260200191505060405180910390a15050565b600061209f8260016127c690919063ffffffff16565b9050919050565b6008602052816000526040600020818154811015156120c157fe5b90600052602060002001600091509150508054600181600116156101000203166002900480601f0160208091040260200160405190810160405280929190818152602001828054600181600116156101000203166002900480156121665780601f1061213b57610100808354040283529160200191612166565b820191906000526020600020905b81548152906001019060200180831161214957829003601f168201915b505050505081565b6121773361290e565b565b806001600781111561218757fe5b6007600083815260200190815260200160002060050160009054906101000a900460ff1660078111156121b657fe5b1415156121c257600080fd5b6121cb33612089565b15156121d657600080fd5b60026007600084815260200190815260200160002060050160006101000a81548160ff0219169083600781111561220957fe5b02179055507ff786e7f77ede00a02a5464f8f0555798f42ba99a4a920ef2778db8d75e4656f7826040518082815260200191505060405180910390a15050565b612251611c18565b151561225c57600080fd5b61226581612968565b50565b612271336117aa565b151561227c57600080fd5b61016060405190810160405280868152602001858152602001600073ffffffffffffffffffffffffffffffffffffffff1681526020018473ffffffffffffffffffffffffffffffffffffffff16815260200160008152602001600060078111156122e257fe5b8152602001600073ffffffffffffffffffffffffffffffffffffffff168152602001600073ffffffffffffffffffffffffffffffffffffffff168152602001600073ffffffffffffffffffffffffffffffffffffffff1681526020018381526020018281525060076000868152602001908152602001600020600082015181600001556020820151816001015560408201518160020160006101000a81548173ffffffffffffffffffffffffffffffffffffffff021916908373ffffffffffffffffffffffffffffffffffffffff16021790555060608201518160030160006101000a81548173ffffffffffffffffffffffffffffffffffffffff021916908373ffffffffffffffffffffffffffffffffffffffff1602179055506080820151816004015560a08201518160050160006101000a81548160ff0219169083600781111561242b57fe5b021790555060c08201518160050160016101000a81548173ffffffffffffffffffffffffffffffffffffffff021916908373ffffffffffffffffffffffffffffffffffffffff16021790555060e08201518160060160006101000a81548173ffffffffffffffffffffffffffffffffffffffff021916908373ffffffffffffffffffffffffffffffffffffffff1602179055506101008201518160070160006101000a81548173ffffffffffffffffffffffffffffffffffffffff021916908373ffffffffffffffffffffffffffffffffffffffff160217905550610120820151816008015561014082015181600901908051906020019061252e929190612c97565b509050508460076000868152602001908152602001600020600001819055508484016007600086815260200190815260200160002060080181905550612572611bd1565b6007600086815260200190815260200160002060020160006101000a81548173ffffffffffffffffffffffffffffffffffffffff021916908373ffffffffffffffffffffffffffffffffffffffff1602179055507feb8109592a383473c76afa62041a6dbabac0ca80d859bbdffb13c5a70c454b90846040518082815260200191505060405180910390a15050505050565b612618816003612a6490919063ffffffff16565b8073ffffffffffffffffffffffffffffffffffffffff167f28b26e7a3d20aedbc5f8f2ebf7da671c0491723a2b78f47a097b0e46dee0714260405160405180910390a250565b612672816000612a6490919063ffffffff16565b8073ffffffffffffffffffffffffffffffffffffffff167fcbfc96fa35f269722f7abab67c3e11fbfd63618e2e593bdf481f2818e8e8304260405160405180910390a250565b6126cc816003612b1490919063ffffffff16565b8073ffffffffffffffffffffffffffffffffffffffff167fe3f5ed5f263f1f01764a96edfc7d025f511ec5f7d180e8816908b78bcf74f09860405160405180910390a250565b612726816002612b1490919063ffffffff16565b8073ffffffffffffffffffffffffffffffffffffffff167f126174f6cf49c81cdb4a9214c6b8f037bef55b4ec31e4fc776cea2a1c8a88d5960405160405180910390a250565b612780816001612a6490919063ffffffff16565b8073ffffffffffffffffffffffffffffffffffffffff167f4ecfa6033e9d0c710259da17faebbf4d5dcc3795adef7258f16a21a6fdfa673860405160405180910390a250565b60008073ffffffffffffffffffffffffffffffffffffffff168273ffffffffffffffffffffffffffffffffffffffff161415151561280357600080fd5b8260000160008373ffffffffffffffffffffffffffffffffffffffff1673ffffffffffffffffffffffffffffffffffffffff16815260200190815260200160002060009054906101000a900460ff16905092915050565b61286e816002612a6490919063ffffffff16565b8073ffffffffffffffffffffffffffffffffffffffff167fddbf200aa634dc3fb81cfd68583dd1040d1c751d335e1d86b631bde3e977fea860405160405180910390a250565b6128c8816000612b1490919063ffffffff16565b8073ffffffffffffffffffffffffffffffffffffffff167f9d7bad3f21c51eaf001a18afc7f3666e2f9413dafcb58ea9413eeea76b6a2cd360405160405180910390a250565b612922816001612b1490919063ffffffff16565b8073ffffffffffffffffffffffffffffffffffffffff167f7b5772243b6612a540480cdb8fe68ea0f96eb02d8ff6beb43fca694986dcadaa60405160405180910390a250565b600073ffffffffffffffffffffffffffffffffffffffff168173ffffffffffffffffffffffffffffffffffffffff16141515156129a457600080fd5b8073ffffffffffffffffffffffffffffffffffffffff16600460009054906101000a900473ffffffffffffffffffffffffffffffffffffffff1673ffffffffffffffffffffffffffffffffffffffff167f5c486528ec3e3f0ea91181cff8116f02bfa350e03b8b6f12e00765adbb5af85c60405160405180910390a380600460006101000a81548173ffffffffffffffffffffffffffffffffffffffff021916908373ffffffffffffffffffffffffffffffffffffffff16021790555050565b600073ffffffffffffffffffffffffffffffffffffffff168173ffffffffffffffffffffffffffffffffffffffff1614151515612aa057600080fd5b612aaa82826127c6565b151515612ab657600080fd5b60018260000160008373ffffffffffffffffffffffffffffffffffffffff1673ffffffffffffffffffffffffffffffffffffffff16815260200190815260200160002060006101000a81548160ff0219169083151502179055505050565b600073ffffffffffffffffffffffffffffffffffffffff168173ffffffffffffffffffffffffffffffffffffffff1614151515612b5057600080fd5b612b5a82826127c6565b1515612b6557600080fd5b60008260000160008373ffffffffffffffffffffffffffffffffffffffff1673ffffffffffffffffffffffffffffffffffffffff16815260200190815260200160002060006101000a81548160ff0219169083151502179055505050565b610160604051908101604052806000815260200160008152602001600073ffffffffffffffffffffffffffffffffffffffff168152602001600073ffffffffffffffffffffffffffffffffffffffff1681526020016000815260200160006007811115612c2c57fe5b8152602001600073ffffffffffffffffffffffffffffffffffffffff168152602001600073ffffffffffffffffffffffffffffffffffffffff168152602001600073ffffffffffffffffffffffffffffffffffffffff16815260200160008152602001606081525090565b828054600181600116156101000203166002900490600052602060002090601f016020900481019282601f10612cd857805160ff1916838001178555612d06565b82800160010185558215612d06579182015b82811115612d05578251825591602001919060010190612cea565b5b509050612d139190612d17565b5090565b612d3991905b80821115612d35576000816000905550600101612d1d565b5090565b905600a165627a7a72305820138e6e9eed2a1fad21769e8df5024eadf3f6211c31a03a52c3d77d1c4db204dc0029",
  "source": "pragma solidity ^0.4.24;\n\nimport \"../musicaccesscontrol/ArtistRole.sol\";\nimport \"../musicaccesscontrol/RecordLabelRole.sol\";\nimport \"../musicaccesscontrol/DistributorRole.sol\";\nimport \"../musicaccesscontrol/ConsumerRole.sol\";\nimport \"../musiccore/Ownable.sol\";\n\n// Define a contract 'Supplychain'\ncontract SupplyChain is ArtistRole, RecordLabelRole, DistributorRole, ConsumerRole, Ownable{\n    // Define 'owner'\n    //address owner;\n\n    // Define a variable called 'upc' for Universal Product Code (UPC)\n    uint upc;\n\n    // Define a variable called 'sku' for Stock Keeping Unit (SKU)\n    uint sku;\n\n    // Define a public mapping 'music' that maps the UPC to an Music.\n    mapping (uint => Music) public music;\n\n    // Define a public mapping 'musicHistory' that maps the UPC to an array of TxHash,\n    // that track its journey through the supply chain -- to be sent from DApp.\n    mapping (uint => string[]) public musicHistory;\n\n    // Define enum 'State' with the following values:\n    enum State {\n        Made,       // 0\n        Registered, // 1\n        Verified,   // 2\n        Promoted,   // 3\n        Distributed,// 4\n        ForSale,    // 5\n        Bought,     // 6\n        Listened    // 7\n    }\n\n    State constant defaultState = State.Made;\n\n    // Define a struct to hold the music information\n    struct MusicInfo {\n        uint musicID;\n        string musicNotes;\n    }\n\n    // Define a struct 'Music' with the following fields:\n    struct Music {\n        uint    sku;                // Stock Keeping Unit (SKU)\n        uint    upc;                // Universal Product Code (UPC), generated by the Artist, goes on the package, can be verified by the Consumer\n        address ownerID;            // Metamask-Ethereum address of the current owner as the product moves through 8 stages\n        address artistID;     // Metamask-Ethereum address of the Artist\n        uint    musicPrice;         // Music Price\n        State   musicState;         // Music State as represented in the enum above\n        address distributorID;      // Metamask-Ethereum address of the Distributor\n        address recordLabelID;      // Metamask-Ethereum address of the RecordLabel\n        address consumerID;         // Metamask-Ethereum address of the Consumer\n        //MusicInfo musicInfo; \n        uint musicID;\n        string musicNotes;\n    }\n\n    // Define 8 events with the same 8 state values and accept 'upc' as input argument\n    event Made(uint upc);\n    event Registered(uint upc);\n    event Verified(uint upc);\n    event Promoted(uint upc);\n    event Distributed(uint upc);\n    event ForSale(uint upc);\n    event Bought(uint upc);\n    event Listened(uint upc);\n\n    // Define a modifier that checks to see if msg.sender == owner of the contract\n    //odifier onlyOwner() {\n    //    require(msg.sender == owner);\n    //    _;\n    //}\n\n    // Define a modifier that verifies the Caller\n    modifier verifyCaller(address _address) {\n        require(msg.sender == _address);\n        _;\n    }\n\n    // Define a modifier that checks if the paid amount is sufficient to cover the price\n    modifier paidEnough(uint _price) {\n        require(msg.value >= _price);\n        _;\n    }\n\n    // Define a modifier that checks the price and refunds the remaining balance\n    modifier checkValue(uint _upc) {\n        _;\n        uint _price = music[_upc].musicPrice;\n        uint amountToReturn = msg.value - _price;\n        music[_upc].consumerID.transfer(amountToReturn);\n    }\n\n    // Define a modifier that checks if an music.state of a upc is Made\n    modifier made(uint _upc) {\n        require(music[_upc].musicState == State.Made);\n        _;\n    }\n\n    // Define a modifier that checks if an music.state of a upc is Registered\n    modifier registered(uint _upc) {\n        require(music[_upc].musicState == State.Registered);\n        _;\n    }\n\n    // Define a modifier that checks if an music.state of a upc is Verified\n    modifier verified(uint _upc) {\n        require(music[_upc].musicState == State.Verified);\n        _;\n    }\n\n    // Define a modifier that checks if an music.state of a upc is Promoted\n    modifier promoted(uint _upc) {\n        require(music[_upc].musicState == State.Promoted);\n        _;\n    }\n\n    // Define a modifier that checks if an music.state of a upc is Distributed\n    modifier distributed(uint _upc) {\n        require(music[_upc].musicState == State.Distributed);\n        _;\n    }\n\n    // Define a modifier that checks if an music.state of a upc is ForSale\n    modifier forSale(uint _upc) {\n        require(music[_upc].musicState == State.ForSale);\n        _;\n    }\n\n    // Define a modifier that checks if an music.state of a upc is Bought\n    modifier bought(uint _upc) {\n        require(music[_upc].musicState == State.Bought);\n        _;\n    }\n\n    // Define a modifier that checks if an music.state of a upc is Listened\n    modifier listened(uint _upc) {\n        require(music[_upc].musicState == State.Listened);\n        _;\n    }\n\n    // In the constructor set 'owner' to the address that instantiated the contract\n    // and set 'sku' to 1\n    // and set 'upc' to 1\n    constructor() public payable {\n        //owner = msg.sender;\n        //sku = 1;\n        //upc = 1;\n    }\n\n    // Define a function 'kill' if required\n    function kill() public onlyOwner{\n        selfdestruct(owner());\n    }\n\n    // Define a function 'makeMusic' that allows an artist to make music\n    function makeMusic(uint psku, uint pupc, address pownerID, uint _musicID,string _musicNotes) public \n        onlyArtist\n    {\n      // Declare a variable of type MusicInfo\n      //MusicInfo memory _musicInfo;\n\n      //_musicInfo.musicID = 0;\n      //_musicInfo.musicNotes = _musicNotes;\n\n        // Add new music\n        music[pupc] = Music({\n            sku: psku,\n            upc: pupc,\n            ownerID: address(0x0),\n            artistID: pownerID,\n            musicPrice: 0,\n            musicState: State.Made,\n            distributorID: address(0x0),\n            recordLabelID: address(0x0),\n            consumerID: address(0x0),\n            //musicInfo: _musicInfo // Assign the musicInfo struct to the musicInfo property\n            musicID : _musicID,\n            musicNotes : _musicNotes\n        });\n        // Increment sku\n        music[pupc].sku = psku;\n        //music[pupc].musicInfo.musicID = pupc*10 + sku;\n        music[pupc].musicID = pupc+ psku;\n        //console.log(\"here is my musicInfo = \", music[pupc].musicInfo.musicID)\n        music[pupc].ownerID = owner();\n        // Emit the appropriate event\n        emit Made(pupc);\n    }\n\n    // Define a function 'registerMusic' that allows an artist to mark music as 'Registered'\n    function registerMusic(uint _upc) public\n        made(_upc)\n        onlyArtist\n        //verifyCaller(music[_upc].ArtistID)\n    {\n        // Update the appropriate fields\n        music[_upc].musicState = State.Registered;\n\n        // Emit the appropriate event\n        emit Registered(_upc);\n    }\n\n    // Define a function 'verifyMusic' that allows a record Label to mark music as 'Verified'\n    function verifyMusic(uint _upc) public\n        registered(_upc)\n        onlyRecordLabel\n        //verifyCaller(music[_upc].originArtistID)\n    {\n        // Update the appropriate fields\n        music[_upc].musicState = State.Verified;\n\n        // Emit the appropriate event\n        emit Verified(_upc);\n    }\n\n    // Define a function 'promoteMusic' that allows a record Label  to mark music as 'Promoted'\n    function promoteMusic(uint _upc) public\n        verified(_upc)\n        onlyRecordLabel\n        //verifyCaller(music[_upc].originArtistID)\n    {\n        // Update the appropriate fields\n        music[_upc].musicState = State.Promoted;\n\n        // Emit the appropriate event\n        emit Promoted(_upc);\n    }\n\n    // Define a function 'distributeMusic' that allows a distributor to mark music as 'Distributed'\n    function distributeMusic(uint _upc) public\n        promoted(_upc)\n        onlyDistributor\n        //verifyCaller(music[_upc].originArtistID)\n    {\n        // Update the appropriate fields\n        music[_upc].musicState = State.Distributed;\n\n        // Emit the appropriate event\n        emit Distributed(_upc);\n    }\n\n    // Define a function 'sellMusic' that allows a artist to mark music as 'ForSale'\n    function sellMusic(uint _upc, uint _price) public\n        distributed(_upc)\n        onlyDistributor\n        //verifyCaller(music[_upc].originArtistID)\n    {\n        // Update the appropriate fields\n        music[_upc].musicState = State.ForSale;\n        music[_upc].musicPrice = _price;\n\n        // Emit the appropriate event\n        emit ForSale(_upc);\n    }\n\n    // Define a function 'buyMusic' that allows the disributor to mark music as 'Bought'\n    // Use the above defined modifiers to check if the music is available for sale, if the buyer has paid enough,\n    // and any excess ether sent is refunded back to the buyer\n    function buyMusic(uint _upc) public payable\n        // Call modifier to check if upc has passed previous supply chain stage\n        forSale(_upc)\n        // Call modifier to check if buyer has paid enough\n        paidEnough(music[_upc].musicPrice)\n        //paidEnough(_upc)\n        // Call modifier to send any excess ether back to buyer\n        checkValue(_upc)\n        onlyConsumer\n    {\n        // Store product owner before it's updated\n        address origmMusicOwner = music[_upc].ownerID;\n\n        // Update the appropriate fields - ownerID, distributorID, musicState\n        music[_upc].ownerID = msg.sender;\n        music[_upc].distributorID = msg.sender;\n        music[_upc].musicState = State.Bought;\n\n        // Transfer money to farmer\n        origmMusicOwner.transfer(music[_upc].musicPrice);\n\n        // Emit the appropriate event\n        emit Bought(_upc);\n    }\n\n    // Define a function 'listenToMusic' that allow a consumer to 'listen to music'\n    function listenToMusic(uint _upc) public\n        bought(_upc)\n        onlyConsumer\n        //verifyCaller(music[_upc].originArtistID)\n    {\n        // Update the appropriate fields\n        music[_upc].musicState = State.Listened;\n\n        // Emit the appropriate event\n        emit Listened(_upc);\n    }\n\n    function fetchmusicBufferOnePartOne(uint _upc) public view returns (\n        uint    musicSKU,\n        uint    musicUPC,\n        address ownerID,\n        address artistID\n    ) {\n        Music memory m = music[_upc];\n        return (\n            m.sku,\n            m.upc,\n            m.ownerID,\n            m.artistID\n        );\n    }\n\n    function fetchmusicBufferOnePartTwo(uint _upc) public view returns (\n        uint    musicSKU,\n        uint    musicUPC,\n        uint    musicPrice, \n        uint   musicState,\n        uint        musicID,\n        string      musicNotes\n    ) {\n        Music memory m = music[_upc];\n        return (\n            m.sku,\n            m.upc,\n            m.musicPrice,\n            uint(m.musicState),\n            //m.musicInfo.musicID,\n            m.musicID,\n            m.musicNotes\n            //m.musicInfo.musicNotes\n        );\n    }\n\n    function fetchmusicBufferOnePartThree(uint _upc) public view returns (\n        uint    musicSKU,\n        uint    musicUPC,\n        address artistID, \n        address distributorID,     \n        address recordLabelID,     \n        address consumerID \n    ) {\n        Music memory m = music[_upc];\n        return (\n            m.sku,\n            m.upc,\n            m.artistID,\n            m.distributorID,\n            m.recordLabelID,\n            m.consumerID\n        );\n    }\n}",
  "sourcePath": "/Users/biodunerinle/Desktop/nd1309-Project-6b-Example-Template/project-6/contracts/musicbase/SupplyChain.sol",
  "compiler": {
    "name": "solc",
    "version": "0.4.24+commit.e67f0147.Emscripten.clang"
  },
  "schemaVersion": "3.4.16",
  "updatedAt": "2023-11-17T03:02:02.428Z",
  "networkType": "ethereum",
  "devdoc": {
    "methods": {}
  },
  "userdoc": {
    "methods": {
      "isOwner()": {
        "notice": "Check if the calling address is the owner of the contract"
      },
      "owner()": {
        "notice": "Look up the address of the owner"
      },
      "renounceOwnership()": {
        "notice": "Define a function to renounce ownerhip"
      },
      "transferOwnership(address)": {
        "notice": "Define a public function to transfer ownership"
      }
    }
  }
}